:020000040800F2
:1000000000000120D99705085D9805082D7D03089B
:100010005D9805085D9805085D98050800000000DA
:100020000000000000000000000000005D980508CE
:100030005D980508000000005D980508D7BE04081B
:100040005D9805085D9805085D9805085D980508A8
:100050005D9805085D9805085DCA040871CA040822
:100060006DCA040869CA040865CA0408156705084A
:1000700001670508ED660508D9660508C566050827
:10008000B5660508A56605085D9805085D9805082C
:100090005D9805085D9805085D98050861CA040823
:1000A000C95F050871600508B95F05089560050816
:1000B0006160050851600508416005085967050839
:1000C00065670508416705084D6705085D980508DF
:1000D0005D9805087D5F0508715F0508655F050887
:1000E00059CA04085D9805085D980508A95F0508C8
:1000F000FD5F0508D95F05082160050895660508BC
:100100005D9805085D980508316005085D9805084B
:10011000595F05084D5F05085D980508313A0508E7
:1001200085660508716605085D6605084966050867
:100130003566050800000000000000000000000017
:1001400000000000000000000000000099440508C5
:10015000216605080D660508F9650508415F050873
:1001600029670508356705085D9805085D98050845
:100170005D9805085D98050800000000000000007B
:100180005D9805085D9805085D9805085D98050867
:100190005D9805085D980508000000005D98050859
:1001A0000000000000000000000000005D9805084D
:1001B0005D9805085D98050800000000000000003B
:1001C000000000000000000000000000000000002F
:1001D0000000000000000000000000005D9805081D
:0801E00030930500010000004E
:1001E800E84902200208000002001433084A0220ED
:1001F800020E000102002234284A022001110000E8
:1002080000007600484A02200118000000001E0085
:10021800684A0220011E000000000D00884A0220E2
:10022800022B010000012C00A84A02200233000022
:1002380000023D00C84A02200134000000003C00D2
:10024800E84A02200132000000004000084B02206A
:100258000137000000002000284B02200138000070
:040268000000290069
:1080000009284FF00103F0B407D903EB83035B00A9
:10801000B0FBF3F2092AF8D84BB30026DFF858C0BA
:10802000ACFB03720D46B0FBF3F4002C03FB140011
:108030004FEAD202D4BF0027012756B94FB9092B06
:108040003E4612D8303405F8014B00232B70F0BCAB
:108050007047092C06F10106CCBF57213021092BAE
:108060000C4405F8014B2946EFD91346D8E70D46D5
:1080700000232B70F0BC7047CDCCCCCCF0B50023E6
:108080000E680DE0BCF1050F17D9BEF1050F18D829
:108090000A2C16D103EB830316F8010B04EB430300
:1080A000A0F13005A0F1610CA0F1410EA0F1370460
:1080B000EFB2092FE6D82C46ECE7A0F157040A2CC2
:1080C000E8D00E601360F0BDDFEDB75A0223B0EECA
:1080D000655A2DE9F04F2DED108B8FB00190049172
:1080E0000D9202910393029B18204FF00009D908CA
:1080F000DA004B0100FB01F428204FEA011B089332
:10810000019B0C9403EB411C00FB01F4CB003020DD
:10811000069407936FF0170300FB01F438204B43DC
:1081200005940CEB030700FB01FA019807EB4116DD
:1081300000F1040EF51805EB4114234403EB41183C
:10814000DCED007A1EED017AD7ED003A77EE276A72
:10815000D5ED004A37EE677AD6ED007A98ED003A11
:10816000D3ED002A33EEA76A73EEE73AD4ED007A36
:1081700034EEA74A74EEE77A72EE834A36EEC48A8A
:1081800076EE846A36EE640A36EE246A72EEC32A0C
:1081900076EE864A76EEC66A4EED014ACCED006A6E
:1081A0009CED016ADEED004A97ED014A74EE866AA5
:1081B00095ED013A34EEC66AD6ED014AD8ED011AC2
:1081C00034EE242A34EE644AD4ED014A33EE241A04
:1081D00073EE644A93ED013A73EE210A33EE613A8D
:1081E00076EEC11A76EE816A32EE601A32EE202AFD
:1081F00076EE820A76EEC26A38EE412ACEED000AA9
:108200009644CCED016A78EE016A9444C5ED006AAB
:1082100071EEC06A84ED002A34EE432A34EE034A3C
:10822000C5ED016A70EE216A73EEE21A1544B0EEF4
:10823000473AC4ED016A73EEA26AF0EE673A14445D
:10824000F0EE462AE6EEA57AE6EEE53AF0EE466A6C
:10825000B0EE646AE2EE652AE2EE256AA1EEA57A46
:10826000A4EE256AB0EE642AA1EEE53AA4EE652AF2
:1082700077EE064A37EE467AC7ED004A88ED007A77
:1082800033EE027A33EE423A86ED007A36EEE77A42
:1082900077EEA67A83ED003A87ED017A1744C8EDB0
:1082A000017A72EEE37A73EEA23A9044C6ED017A57
:1082B0001644C3ED013A134402988144049848459A
:1082C0003FF63EAF072940F2738101980124089BD5
:1082D00003440B93079B03440A93069B03440993AF
:1082E0000BEB00030893059B034407930C9B03448B
:1082F00006930AEB0003059300230398A346034467
:108300000D9800EBC3056FF02F00D5ED001A05EBBB
:10831000C30595ED008A05EBC305D5ED004A05EBD5
:10832000C30595ED009A05EBC305D5ED003A05EBC5
:10833000C305D5ED000A05EBC305D5ED002A00FB0A
:108340000355019895ED011A05EBC30500EBC40A2E
:108350000B98D5ED018A05EBC30500EBC4090A981B
:1083600095ED014A05EBC30500EBC4080998D5ED6E
:10837000019A05EBC30500EBC40E089895ED013A90
:1083800005EBC30500EBC40C079895ED010A05EB5E
:10839000C30500EBC407069895ED012A00EBC4065F
:1083A000059800EBC40501E0F304353FD9ED007AF0
:1083B000D8ED006A9EED007A9AED00AA9CED00BA15
:1083C00036EEC7DA3AEE276A96ED00EA3AEE67AA89
:1083D00076EE877AD7ED006A3BEE267A3BEE66BAF8
:1083E000D5ED006A7EEE26AA36EE47FA36EE076A2B
:1083F00077EEEAEA77EEAA7A3EEE66EA36EE277A7A
:1084000076EE67AA9AED016A8AED007AD9ED017AD3
:10841000D8ED01CA36EE277ADCED016A76EE67BA4E
:10842000DEED017AD6ED01FAD5ED01DA3CEEA76A70
:108430007CEEE7CAD7ED017A36EEA7CA76EEE77A88
:108440007FEEAD6A7FEEEDDA77EE4CFA37EE0CCACE
:1084500036EE667A36EE266A7FEE076A3FEE477A98
:108460003CEE06FA3CEE46CA8AED01FA3FEEEEFA21
:1084700029EE8C6A92447EEEAFEAA9EE2A6A89ED73
:10848000006A2AEEE96A7DEE4EAAA9EE0C6AB0EE09
:108490004ACAAAEE85AAAAEEC5CAF0EE4BAA89ED91
:1084A000016A28EE8F6A9144A8EE266A66EEE86AB1
:1084B000E8EE0F6A8CED006A3CEEED6ACCED016AE5
:1084C00060EE2E6A9444E0EE876A27EE407AA0EED2
:1084D000AE7AC7ED006A7DEE0E6AA6EE85BA87ED2C
:1084E000017A3CEEAD7AF0EE6BCA1744E6EE05BABF
:1084F000E6EEC5AAE6EE45CAB0EE6B6AF0EE67BAE4
:10850000E7EE057AE7EE45BA7AEE276A7AEE677A01
:108510003CEE2B7A3CEE6BAA36EE4BCA3BEE066A7B
:108520003CEEEABA61EE0CBA7AEEACAAE1EEA6BA7B
:1085300066EEC16AE1EE8C6AC8ED00BAC8ED016A68
:1085400062EE066A9044E2EEA76AC5ED006A67EE45
:10855000C26A63EE0B7AE2EE866AE3EE877A27EE72
:10856000437AA3EE8B7AC5ED016A1544CEED007A0D
:1085700064EE2A7AE4EE8A7A8EED017A9644C6EDAC
:10858000007A6AEE447AE4EEAA7AC6ED017A1644DD
:1085900002988344049858453FF608AF0134A1423D
:1085A0007FF4ABAE039BDB009BB2CDE902139AE5EF
:1085B0000FB0BDEC108BBDE8F08F00BF71EEC11A9B
:1085C00061EE801A81EEA00A30EE010A704700BF0A
:1085D00000B5034683B03221074A68468DF8001083
:1085E00019689B881268CDF80110ADF805309047E6
:1085F00003B05DF804FB00BF582401201F4B2DE998
:10860000F041002406465D6800F1070807E039469E
:1086100028461B683C4498474645A4B211D016F83A
:10862000017B28467D21A7F17D03012B2B68EED825
:108630001B6898472B6887F02001E9E7E3B203EB5A
:108640001424FF2CFAD8C4F1FF04E4B2A4F17D0392
:10865000012B2B6805D9214628461B68BDE8F0414F
:10866000184728467D211B6898472B6884F0200115
:1086700028461B68BDE8F041184700BF5824012078
:108680000A4AD36910B5198100219981516959604D
:1086900019684C1C1C6008704FF6F671D36952695A
:1086A00099811968C3E9002110BD00BF5824012039
:1086B0000A88504080EA0010C0B2030983EA1223FE
:1086C00043EA002383EAC00008807047064B93F812
:1086D0003320012A02D1054A1A667047022A0CBFCC
:1086E000034A044AF8E700BF582401200000012093
:1086F0000A00012014000120074B03F176024260BA
:1087000003F165020260242283F8642003685A1C86
:10871000026054221A70704758240120F8B50022D4
:108720000D464FF6FF7302398A420FD34354461960
:108730001B0A0446084F06F8013C14F8011BB86FE9
:1087400043F01DFCA642F8D1E8B2F8BD845C0132CA
:108750001B1B9BB2E8E700BF582401200B1407B590
:1087600008228DF804300B0E60F05F00ADF80210A7
:1087700011468DF8053000238DF8010068468DF80C
:108780000020ADF80630FFF7C9FF03B05DF804FB29
:10879000062307B560F05F000022ADF8021019460D
:1087A0008DF8010068468DF80030ADF80420FFF721
:1087B000B5FF03B05DF804FB00284FF03C0270B534
:1087C000B8BF4042114E124DB0FBF6F305FB03005B
:1087D0009BB202FB00F494FBF6F20E4E90B296F8B8
:1087E0002A607EB903EB830303EB830300EB83036F
:1087F00005FB02421BB20B804FF47A7392FBF3F23B
:108800004A8070BDC3EB0313F0E700BF8096980069
:10881000806967FF58240120014610B55E29094C84
:10882000E06F08D15D2143F0AAFB3E21E06FBDE877
:10883000104043F0A4BB5D29F9D143F0A0FB3D21DA
:10884000F4E700BF58240120024B5E21D86F43F0AB
:1088500096BB00BF58240120264B19685B6821F0A5
:10886000404222F07F02002A0CBF012002204A076A
:1088700048BF0430D90744BF0A3080B29A0744BFCA
:10888000143080B2D90544BF283080B25A0744BFA3
:10889000643080B2190744BFC83080B29A0644BF22
:1088A00000F5C87080B2D90644BF00F57A7080B276
:1088B000DA040FD500F5FA5080B2990442BF00F5F2
:1088C0001C50103080B29A050ED5A0F5C740403834
:1088D00080B27047190502D500F5FA60ECE75A0638
:1088E000EBD500F57A60E7E75B05F2D500F59C4033
:1088F0002030EDE700000020002270B511460A2468
:10890000561C08B9084670BDB0FBF4F5D2B204FBA2
:108910001503A8B292009BB2934032461943EFE789
:1089200000280E4AB8BF4042B0FBF2F330B50C4D00
:108930003C2405FB030003EB8303604303EB830349
:1089400090FBF2F202EB830305FB02020B804FF473
:108950007A7392FBF3F24A8030BD00BF8096980094
:10896000806967FF264A30B492F8803004684B4033
:10897000651C13F0800F4FEA4303056018BF83F0B6
:10898000D5032170DBB213F0800F4FEA430318BF09
:1089900083F0D503DBB213F0800F4FEA430318BF17
:1089A00083F0D503DBB213F0800F4FEA430318BF07
:1089B00083F0D503DBB213F0800F4FEA430318BFF7
:1089C00083F0D503DBB213F0800F4FEA430318BFE7
:1089D00083F0D503DBB213F0800F4FEA430318BFD7
:1089E00083F0D503DBB213F0800F4FEA430318BFC7
:1089F00083F0D503DBB282F8803030BC704700BF13
:108A000058240120022803D0431E58425841704781
:108A1000054B93F8283013B110202EF0EDB9034B1D
:108A20001868C0F38000704758240120000000201F
:108A3000036800220B4910B48B420FD8591C016007
:108A40001A70094B026803F164015DF8044B42603F
:108A50000160521AD3F8840043F094BA11F8014B24
:108A60006240E9E7BF24012058240120014B93F81C
:108A700088007047582401203E21EA230138F0B4D1
:108A8000414C7B2584F88D1004F1910284F88E50BE
:108A900004F1CB01C82584F88F304D2384F88C5025
:108AA00084F8905010F8015F6B4002F8015B13F0FE
:108AB000800F4FEA430313BF83F0D505DDB25BB2ED
:108AC0006BB218BFEDB2002BB5BF6D006B0085F027
:108AD000D505DDB2B6BF6BB25BB2EDB2002BB5BF50
:108AE0006B006D0083F0D503EBB2B6BF5DB26DB223
:108AF000DBB2002DB5BF5B005D0083F0D503EBB2A8
:108B0000B6BF5DB26DB2DBB2002DB5BF5B005D00DC
:108B100083F0D503EBB2B6BF5DB26DB2DBB2002D10
:108B2000B5BF5B005D0083F0D503EBB2B6BF5DB2AD
:108B30006DB2DBB2002DB5BF5B005D0083F0D503E5
:108B4000EBB2B6BF5DB26DB2DBB2002D4FEA4303AC
:108B5000B8BF83F0D5038A42DBB2A3D10B4D4027C7
:108B600084F8CB30A5F1400684F880300FCE0FC5D5
:108B70000FCE0FC50FCE0FC596E80F0085E80F008A
:108B800084F80C71F0BC7047582401202425012082
:108B9000094B93F8A822D3EDA67A93ED770A092A18
:108BA00020EE270A01BFDFED057A60EE277AFDEEA1
:108BB000E77AC3EDB07A70475824012000007A4468
:108BC00000207047094A08B5D2E90232C01A61EBA9
:108BD000020150F0DBFBDFED067A07EE100A67EECC
:108BE000277AFCEEE77A17EE900A08BD0000002015
:108BF0006F12833A70B51F4C0A220023092694F89D
:108C0000CC12651895F8CD524DBB0BB184F8CC123F
:108C100003685A1C02600C221A7003685A1C026016
:108C200000221A7003685A1C02600D22197001EBB1
:108C3000410301EB8301104B194448F0C9FF94F83C
:108C4000CC320120E218034482F8CD020922B3FBA2
:108C5000F2F202EBC2029B1A84F8CC3270BD013AE8
:108C6000D3D00131B1FBF6F303EBC303C91A2B4692
:108C7000C9B2C6E7582401202E27012038B5044682
:108C80000D460A460068FF2156F00EFB2168294474
:108C9000216038BD0268511C08B501607F210023A6
:108CA00011700268511C01600E211370FFF7E6FF7E
:108CB000012008BD30B53B4C85B094F84B33012BF7
:108CC00001D005B030BD94F84C03022826D0A0F1A5
:108CD0000100B0FA80F0400948B36368002BF0D17E
:108CE000D4F85023002AECD094F83000032594F8EF
:108CF0002910002892F9040001954FF4614214BF35
:108D00000825002500921A46002908BF45F00105F4
:108D10002021029527F084FC6060D2E794F8283087
:108D20003BBB214B1868C0F380000028D5D1626896
:108D3000002AC6D0D4F858339A421FD0D4F86433EE
:108D40009A4224D0D4F870339A4216D0D4F87C33A7
:108D50009A421ED0D4F888339A421CD0D4F8943367
:108D60009A421AD0D4F8A0339A4218D000236360F4
:108D7000A7E710202EF040F8AEE7022000EB4000FD
:108D8000002104EB8003D162C3E9D611EEE7012094
:108D9000F4E70320F2E70420F0E70520EEE70620E1
:108DA000ECE700BF582401200000002038B51A4D20
:108DB0006322002195F8B0034AF07EF8B5F8D43369
:108DC00004463220333B09220021144D93FBF0F07E
:108DD0004AF072F8C0F10903642000FB0340AB695C
:108DE00084B2990744BF04F57A74A4B2DA072B68F9
:108DF00044BF04F5FA64A4B25B070AD515202DF030
:108E0000FBFF30B16B6813F4016F04BF04F57A64A3
:108E1000A4B2204638BD00BF582401200000002025
:108E2000C31D2DE9F04703F4FC73484D82B00E4694
:108E300000AFEC69ADEB030D95F8E0336A69684467
:108E400003F1010CC7F800D02168E8465FFA8CFCFA
:108E500003F00F039142786085F8E0C338D1B4F98C
:108E60000C2043F010034146002A08F10102B8BF6C
:108E700043F020033A6001F8023BD4E90023396053
:108E80009B1A88F801303B68D4E90012A0EB030973
:108E9000521A5FFA89F95FFA82FA09F10703CA45A3
:108EA00003F4FC73ADEB030D18D34A46684655F046
:108EB000B7FF23684A4669464B443846236048F06A
:108EC00087FE4046B04701200837BD46BDE8F08721
:108ED0000DF101028DF800303A60D4E75246684641
:108EE00055F09EFF23685246694653443846236036
:108EF00048F06EFE6B6921680020EA69C4E9003120
:108F0000127ACB1A5340DBB285F8E13322689142E2
:108F100012D108B185F8E1333B6895F8E123591C7B
:108F2000396000211A70D7E900239B1A012B09DC54
:108F30004046B0470020C7E7501C2060012012784F
:108F40005340E3E7531C3B601170ECE758240120C9
:108F50002DE9F047634C82B0E26900AFD2E900230B
:108F60009B1A002BC4BF002384F8E23394F8E23349
:108F700093B95D4A02F181052261C4F86424A561B8
:108F800002F19105C4F8682402F291126561E26170
:108F9000C4F87455C4F878550144421CA569E160D1
:108FA000A26002785109012905D000210846FFF787
:108FB00067FB012043E002F00F0A12F0100232D0EA
:108FC000831C002284F8E213A360C31C4678A360CC
:108FD0008378AA8122692B8173402A60324484F805
:108FE00084356A60D5E90032D21AD4E902635FFAA7
:108FF00082F99B1B5FFA83F808F10703C14503F46C
:10900000FC73ADEB030D1ED3314642466846464421
:1090100055F006FF424669462846A66048F0D8FD4E
:1090200084F885A50AE0002B59D094F885350133E2
:1090300003F00F035345D5D084F8E223002008370E
:10904000BD46BDE8F08731464A4668464E4455F075
:10905000E7FE694628464A46A66048F0B9FD2369FE
:1090600000212868C5E9003094F884352A689042C8
:1090700010D109B184F88435A368197894F884353F
:1090800099424FF0000384F8E23309D0B5F9081093
:1090900001208CE7511C2960012112785340E5E73B
:1090A0002169A069C5E90012E16962690B814A6022
:1090B0003A1D8B817B6031F033FA013005D1E269D2
:1090C0001368591C116002221A707B680BB10020D2
:1090D0009847E36962691968C3E9002169E718469E
:1090E000ADE700BF582401203B2801202DE9F74FB0
:1090F0009B462C4B92460A22B3F986451F46B3F88D
:10910000886503F5B26594FBF2F4B3F88C25A4B23C
:10911000A24210D1B3F88E35B3420CD1D5E900325A
:10912000BAEB03084FF000036BEB02091E4A4B45F4
:1091300008BF424533D20368214601905A1C0260A1
:1091400034221A7003685A1C026000221A7048F018
:1091500067FD3146019848F063FD47F6FF710198BD
:1091600048F05EFD47F6FF71019848F059FD47F65B
:10917000FF71019848F054FD47F6FF71019848F0DF
:109180004FFD01980221FFF779FD0120A7F88C45DA
:10919000A7F88E65C5E900AB03B0BDE8F08F0020ED
:1091A000FAE700BF5824012080841E00294AF8B540
:1091B000D369044613F080034AD0936913F0020385
:1091C00046D0254F97F8B003052841D9632888BFBA
:1091D0006320FFF791FB214BC5B2D7F8BC0390FB8E
:1091E000F3F080B2FFF788FBB7F8CC33C6B24FF488
:1091F000F36013FB00F34FF47A7093FBF0F342F249
:109200000F709BB2834298BF1846FFF775FB236827
:1092100081B220465A1C226017221A7023685A1CF9
:10922000226000221A7048F0FBFC4FF0FF3120460C
:1092300048F0E2FC2368204606215A1C22601D707B
:1092400023685A1C22601E70FFF718FD0120F8BD2C
:109250000020FCE70000002058240120A086010027
:109260004E4AD36913F080032DE9F04F044685B0D0
:1092700000F09280936913F0020300F08D80484E55
:1092800096F8B033052B40F28780D6F8B40303A9D3
:10929000FFF746FBBDF80C00FFF72EFB8346BDF839
:1092A0000E000A27FFF728FB03A940EA0B4BD6F86C
:1092B000B803FFF735FBBDF80C00FFF71DFB824636
:1092C000BDF80E00FFF718FBD6F8BC53354A40EA4C
:1092D0000A4A85EAE573A3EBE5732D16B3FBF7F3B2
:1092E000B3FBF2F002FB103025F07F0580B2FFF7F0
:1092F00003FB81B2B6F8CE036DB20191FFF7FCFA21
:109300001FFA80F9B6F8D403B0FBF7F0632828BF42
:109310006320FFF7F1FAD6F8B473D6F8B8335FFAE2
:1093200080F8002F204A0199D4BF00270127002B85
:10933000CCBF022600269342CCBF04230023226820
:10934000501C00932060162010702268501C206072
:1093500000201070204648F063FC5946204648F033
:109360004BFC5146204648F047FC4946204648F011
:1093700057FC009B226801201F43511C3D43216084
:109380002E4382F80080226846F03806511C216086
:10939000167005B0BDE8F08F0020FAE7000000204D
:1093A00058240120A0860100FFC99A3B08B500207F
:1093B00056F0FEF8B0FA80F0400908BD03684FF699
:1093C000FF715A1C10B502607E2204461A700368B1
:1093D0005A1C026000221A7048F004FC0B4B93F8F0
:1093E0002E3083B122F080FD0146204648F0FAFB82
:1093F000204647F6FF7148F0F5FB20460821FFF7AD
:109400003DFC012010BD22F027FDEDE7582401208E
:1094100008B52CF0A7F8074A126A120606D430B92C
:10942000054B93F86502003818BF012008BD0120E4
:10943000FCE700BF00000020582401200F4890F8EE
:10944000633200F5FE7007EE903A012300F81C3CF1
:10945000F8EE677AD0F89C3340F8183C4FF4FA6382
:1094600040ED027A40F8143C002300F8103C40F82C
:109470000C3C002340F8043C49F00EBD5824012068
:1094800070B50B4E0546B6F8064629F0E7FB844258
:10949000084C04DD1DB9B6F80636638570BDA369B6
:1094A00043F08003A36129F0D9FB6085F6E700BF94
:1094B0005824012000000020002008B5FFF7E0FF3D
:1094C000002008BD30B52DED028B83B0054601911B
:1094D000FFF76CFF0446002841D128460199FFF7A9
:1094E00071FB40F2DC53984207D92046FFF7C8FFD2
:1094F000012003B0BDEC028B30BD07EE900AB8EE40
:10950000E78A29F0ABFB174B07EE900ADFED160A4E
:10951000B3F80626B8EEE71AB0EE480A01EE902A34
:10952000F8EE611AFFF74AF893F81836BDEEC00A54
:109530000E4A01EE903A9FED0E1ADFED0B0A10EE87
:10954000101AF8EE611AB0EE480A5185FFF736F8A6
:10955000FCEEC07A204617EE903A5374C9E7042017
:10956000C7E700BF582401200080BB440000002052
:109570000000000070B506460D46FFF717FF0446D1
:10958000D0B90120FFF77CFF30462946FFF71AFBD0
:109590000A4AB2F80C36984203D9012082F81E46D6
:1095A00070BD181A41F28733984220468CBF0023C1
:1095B000012382F81E36F3E70420F1E75824012046
:1095C00038B5FFF7F3FE60B90A4CB4F8065629F037
:1095D00045FB85420CDC94F818260220064B5A7491
:1095E00038BD0120FFF74CFF0020034B5874F7E70C
:1095F0000120F5E75824012000000020F7B5244E93
:10960000074601912EF03CF9B6F810560446D8BB37
:1096100038460199FFF7D6FAA84237D81D4B07EE16
:10962000900A07EE105AB3F92A20F8EEE77AF8EE1E
:10963000470A01EE902AB6F80826B0EE670A01EE56
:10964000102AF8EEE11AB8EE411AFEF7B7FFBDEEA8
:10965000C00A10EE102AB0EE670A5A85B3F9262028
:1096600001EE902A96F8182601EE102AF8EEE11A7B
:10967000B8EE411AFEF7A2FFFCEEC07A204617EEC4
:10968000902A5A7403B0F0BD0320FBE70120F9E7EC
:109690005824012000000020194610B50446104649
:1096A000FFF790FA064B2044B3F81236984204D9DB
:1096B0002EF0E6F800F0010010BD0020FAE700BF30
:1096C00058240120F8B5184C0646184B0D46B4F83E
:1096D0000826B4F816765A8567B10BF073FA07EED0
:1096E000907A90ED027AF8EEE77AF4EEC77AF1EE2E
:1096F00010FA14D9B4F80A063246B4F80E162B46FE
:109700000844FFF7C9FF60B930462946FFF75AFA07
:10971000B4F81436984294BF00200120F8BD01200F
:10972000FCE70320FAE700BF5824012000000020D6
:109730002DE9F7431F4E024605460B46B6F80A06CA
:109740000191FFF7A9FF044690BB28460199FFF756
:1097500039FAB6F80E860546B6F808968045164FD3
:1097600005D20120A7F82A9003B0BDE8F08329F0C4
:1097700075FAB6F8063607EE909A8342F8EE671A45
:1097800007EE908AB8BF0346F8EE670A07EE905AD4
:109790009BB2B8EEE70A01EE103AB8EE411AFEF7B6
:1097A0000DFFBDEEC00A204610EE103A7B85DBE7C8
:1097B0000320D9E7582401200000002038B50546D1
:1097C0000C460020FFF75CFE2A4623460020FFF7E8
:1097D00063FF58B928462146FFF7F4F9044BB3F864
:1097E0000A36984294BF0020012038BD0320FCE7D0
:1097F000582401202DE9F84F2DED048B80460F46AB
:10980000FFF7D4FD00287AD13E4B9FED3F7AD3ED90
:109810000D7A9A463D4EF0EEE76A93ED0E8AF4EE2D
:10982000C76AF1EE10FACABF93ED0F7A9FED389A2E
:1098300087EE279A28F014FE96F81936DFED357A70
:10984000F0EE408A00EE103AB8EEC00A20EE270A89
:1098500049F012FCB6F8023607EE903AF8EEE77AD5
:10986000B4EEE78AF1EE10FA3EDDF4EEC08AF1EED6
:1098700010FAACBF01240024B6F800B607EE90BA87
:10988000F8EEE77AF4EEC97AF1EE10FA2ED5B5EEDD
:10989000C08AF1EE10FACCBF4FF001094FF0000979
:1098A0001AF036FB054650B1B6F9CC339B4520DAA9
:1098B000B5EEC08AF1EE10FACCBF0125002544EACE
:1098C00009040020FFF7DCFD2C4314D04046394644
:1098D000FFF778F9B6F80436984294BF00200120CB
:1098E000BDEC048BBDE8F88F0024C5E74FF00009FC
:1098F000D6E70025E3E72046CAE90287F0E704201F
:10990000EEE700BF00000020F366DF3F582401208F
:109910000000000035FA8E3C134BDB68C3F30223D2
:1099200010B5C3F107041A1D042C28BF0424062A0D
:109930004FF0FF328CBF033B0023A240002821EAF6
:10994000020101FA03F34FEA0313DBB206DB00F175
:10995000604000F5614080F8003310BD00F00F005A
:10996000024A1354F9E700BF00ED00E014ED00E0F7
:1099700008B50D4B4FF47A721B6AB3FBF2F3013B4F
:10998000B3F1807F09D2094AF0215360084B83F874
:109990002310002393600723136000214FF0FF3052
:1099A000FFF7BAFF002008BD0000012010E000E032
:1099B00000ED00E02E4B002210B5C3F838264CF223
:1099C0005034D3F83C062B4AD168C90341D4D1683E
:1099D00011F4F97144D0D268900705D5D3F8382630
:1099E00042F02002C3F83826224AD168C90605D5BC
:1099F000D3F8381641F01001C3F83816D268920631
:109A000005D5D3F8382642F00802C3F83826194A9B
:109A1000D1684C0605D5D3F8381641F00401C3F8D7
:109A20003816D268100605D5D3F8382642F002025F
:109A3000C3F838260F4AD168C90505D5D3F83816BA
:109A400041F04001C3F838164FF4F9730120D36098
:109A500010BDD3F83C16091AA142B5D90320F7E787
:109A6000D06810F00100F3D001230846D360EFE77F
:109A700058240120003C0240026838B50446906931
:109A800010F010002ED0184D936913F020031CD055
:109A9000102320252046D361D5614DF07BFE22683E
:109AA0000120536823F0FF7323F48B3323F4FF73F7
:109AB00023F00103536004236364002384F84150BE
:109AC00084F8403084F842300CE0D5F83C06401A67
:109AD0000A28D9D92022032084F8403084F8412074
:109AE00084F8423038BD00BF5824012070B50446C8
:109AF0000D46104E23689B699B0701D5002015E099
:109B000029462046FFF7B8FF88B9D6F83C365B1BDC
:109B10000A2BEFD9636C84F8400043F020036364A0
:109B2000202384F8413084F84200032070BD0120D6
:109B3000FCE700BF5824012070B504460D46104EC6
:109B400023689B699B0601D5002015E02946204625
:109B5000FFF792FF88B9D6F83C365B1B0A2BEFD98A
:109B6000636C84F8400043F020036364202384F88E
:109B7000413084F84200032070BD0120FCE700BFA3
:109B80005824012010B5044680214AF037FB0021FB
:109B90002046BDE810404AF031BB0449D1F8F42614
:109BA000B1F8F8365069434053617047582401209A
:109BB00080F00101014842F0E2BE00BF4C2B0120C1
:109BC00000F01F024009012302389340032816D8F1
:109BD000DFE800F0110C0207094A116B0B43136315
:109BE0007047074A516B0B4353637047044A116C2B
:109BF0000B4313647047024A516C0B435364704724
:109C00000038024007EE900A9FED3E7AB1F5C87F1A
:109C1000DFED3D5AF8EE677ADFED3C4ACBBF7823A3
:109C20004FF496733222642287EE275A1A44323B4D
:109C300007EE902A07EE103AB8EEE76ADFED347AC5
:109C4000F0EE086AB8EEC77AB1EE034AF6EE003AD3
:109C500070B50124E5EE257AA5EE667AE5EE267A62
:109C600006EE901AF8EEE66AC4EEA65AF7EE004A3F
:109C700075EEE76A76EEE76A2646013407EE904A0B
:109C8000F8EEE75A65EE855AC6EE257A77EEE47A65
:109C9000FCEEE77A17EE902AD3B20F2B2ED8C7EE40
:109CA000257AFCEEE77A17EE901ACBB20F2B25D867
:109CB000C6EEA57A77EEE47AC7EE845AFCEEE55A52
:109CC00015EE903A581E85B2FF2D17D877EEA37A7D
:109CD000FCEEE77A17EE900AC31A013B9BB2FF2B0A
:109CE0000CD843EA0670120540EA052002F07F62B4
:109CF0000B04104303F47F03184370BD0F2CBBD13A
:109D00000020FAE7286B6E4E000000000024744922
:109D100000002A4330B5ADF5815D002314460A46A4
:109D200081B00146CDE902330DF5815304AD68469B
:109D30000193FD230095ADF8083047F049FF009BE3
:109D4000022269462046CDE9005324F043FA0DF57E
:109D5000815D01B030BD00BF2DE9F047041E0D4606
:109D600012DB092C26DC0B46814A82480021A0FB2D
:109D700004605970C00800EB8000A4EB4000125C46
:109D800028461A70BDE8F08764422D23092C01F89B
:109D9000013B24D8764A774B0020A3FB046348702C
:109DA0002846DB0803EB8303A4EB4303D35C0B706F
:109DB000BDE8F0876F4B632CA3FB04264FEAD60661
:109DC00021DC0B466A4A6B49A1FB0601C90801EB7D
:109DD0008101A6EB4101515C03F8011BC5E7654A0F
:109DE000632CA2FB04364FEAD60637D8604A614B93
:109DF000A3FB0603DB0803EB8303A6EB4303D35C5F
:109E000001F8013BC7E7A3FB0627B4F57A7F4FEAC9
:109E1000D7070DD20B46564A5649A1FB0701C90880
:109E200001EB8101A7EB4101515C03F8011BCAE77B
:109E3000A3FB072842F20F7294424FEAD80836D8A3
:109E40000B464B4A4B49A1FB0801C90801EB8101B4
:109E5000A8EB4101515C03F8011BDDE7A2FB0637CB
:109E6000B4F57A7F4FEAD7070CD2414A414BA3FBA6
:109E70000703DB0803EB8303A7EB4303D35C01F881
:109E8000013BB4E7A2FB073942F20F739C424FEA51
:109E9000D90921D8364A374BA3FB0903DB0803EB6A
:109EA0008303A9EB4303D35C01F8013BDEE7A3FB8B
:109EB0000829314A94424FEAD90921D80B462C4A45
:109EC0002C49A1FB0901C90801EB8101A9EB410162
:109ED000515C03F8011BB5E7A2FB093A264B9C42F3
:109EE0004FEADA0A21D8224A224BA3FB0A03DB08F5
:109EF00003EB8303AAEB4303D35C01F8013BCAE7FE
:109F0000A3FB09231D4A94424FEAD30A21D80B46EA
:109F10001849174AA1FB0A01C90801EB8101AAEB04
:109F20004101515C03F8011BCAE7A2FB0A38134B3D
:109F30009C424FEAD80813D80E4B0D4AA3FB0803E6
:109F4000DB0803EB8303A8EB4303D35C01F8013B7D
:109F5000CAE70A22BAFBF2F047F0FAFB0346D7E75A
:109F60000A22B8FBF2F047F0F3FB0146E4E700BF3A
:109F7000D4880608CDCCCCCC9F8601003F420F0090
:109F80002DE9F047002588B006460F461C46A84636
:109F90000392039B5A1C03921978002940D025296B
:109FA00005D0731C01D03046B8470135F1E79A1C43
:109FB000CDF81080039258782D2805BFDA1C4FF099
:109FC000010A4FF0000A039208BF9878302805BFB5
:109FD000039B4FF001094FF000095A1C04BF039284
:109FE0001878A0F13003DBB2092B09D804AA03A921
:109FF000FEF744F8BAF1000F02D0049B5B420493D1
:10A000006C2840F08080039B5A1C03921A78642AC3
:10A010003FD013D8252A00F0818005D8002AB8D176
:10A02000284608B0BDE8F087582A38D0632AB0D156
:10A03000721CBAD054F8041BC9B2B4E7662A55D0D2
:10A04000A2F16E03D9B20A29A3D80A2BA1D801A183
:10A0500051F823F0E5A00008939F0008939F0008A3
:10A06000939F0008939F0008CBA00008939F0008CF
:10A0700081A00008939F0008939F00089FA00008FC
:10A0800005A954F8040BFDF7BBFF05ABCDE9009320
:10A090001FE005A954F8040B47F072FBF5E7A2F1A5
:10A0A000580005AB10214242424154F8040B47F0DE
:10A0B000ADFBEAE7A0F1580105AB54F8040B4A42A6
:10A0C0004A41102147F0A2FBDFE754F8043BCDE9F9
:10A0D0000083049B3A464FF0FF31304648F052F877
:10A0E000054456E754F8043B1D6052E7073424F05A
:10A0F0000704F4E802014FF031F800EE100A05A859
:10A1000047F0BAFAC1E76628F0D017D85828D1D05E
:10A1100009D8002884D025287FF43BAF731C3FF476
:10A1200044AF25213FE7632882D064287FF431AF14
:10A1300005A954F8040B47F023FBA6E7A0F16E0332
:10A14000DAB20A2A3FF625AF0A2B3FF622AF01A268
:10A1500052F823F0E5A00008939F0008939F0008A1
:10A16000939F0008939F0008CBA00008939F0008CE
:10A1700081A00008939F0008939F0008B5A00008E5
:10A180002DE9F84F43689146844E88461A69074680
:10A19000D0F80CA0C2F303238149DAF8045056F832
:10A1A000234014F5803F75D18D4266D17D4B1969EE
:10A1B00041F400111961196921F400111961D2B239
:10A1C0003846344406EB8202D2F828B04BF09CFFAC
:10A1D000054650464CF0EBF90A23AAF81C30D7F894
:10A1E0000CA050464CF0E3F96F4B03219AF9140090
:10A1F000CAF80C30CAF81870FFF78EFB9AF91400F1
:10A200004DF0E2FCFB6894F820105B685A5858182F
:10A2100022F45F3222F4787242F4153242F04002A6
:10A220005A50426942F0070242615A5822F0C07205
:10A230005A505A5822F4C0025A50C0F80C80856017
:10A240004268120C120442EA090242605A5822F093
:10A25000F05242EA0B025A507B689A795B7912F00D
:10A26000040F3A681E44506896F8481000F0928037
:10A270004CF04BFD0120BDE8F88F4C4B9D429ED128
:10A28000A3F53053196941F480011961196921F46A
:10A29000800193E733198D4293F820002B5823F067
:10A2A00001032B5012D1BCB9414B002119605960F8
:10A2B0009960D9601961212159612B5823F0F0531D
:10A2C0002B50002C42D13F23AB6078E7374B9D42A7
:10A2D0003AD12CB91033E8E7012C05D1354BE4E72E
:10A2E000012C05D1344BE0E7022C05D1334BDCE7E0
:10A2F000022C05D1324BD8E7032C05D1314BD4E7E2
:10A30000032C05D1304BD0E7042C05D12F4BCCE7E3
:10A31000042C05D12E4BC8E7052C05D12D4BC4E7E5
:10A32000052C05D12C4BC0E7062C07D12B4BBCE7E5
:10A330002B4B2C49062C18BF0B46B6E72A4B294954
:10A34000072C18BF0B46B0E7264BAEE7012C02D115
:10A350004FF47463B8E7022C02D14FF47C13B3E7D7
:10A36000032C02D14FF07463AEE7042C02D13F23DB
:10A37000EB6024E7052C02D14FF47463F8E7062C58
:10A3800002D14FF47C13F3E7072C7FF418AF4FF0A2
:10A390007463EDE74CF0D2FD6CE700BFE8F505080B
:10A3A0000060024000380240F1510508006402409C
:10A3B0001060024028600240286402404060024071
:10A3C000406402405860024058640240706002409D
:10A3D000706402408860024088640240A0600240CD
:10A3E000A0640240B8640240B86002400E48D0F851
:10A3F000A43A10B5ABB190F89C48D3F8042244B904
:10A400004FF40073012100F68C0049F0A7FB2046B1
:10A4100010BD4023012100F68C00002449F09EFB72
:10A42000F5E70224F3E700BF582401202DE9F047A7
:10A430004FF0A043C44D00260321C5F8C03A0423C1
:10A4400005F68C02C14CC5F8C43A4023C5F8BC2EB1
:10A4500005F52C62C5F8D43A022385F8791E88B038
:10A46000C5F8D83AC5F8CC3AC5F8F06AC5F8D06A4C
:10A47000C5F8E06AC5F8DC6AC5F8EC6AC5F8E46AB4
:10A48000C5F8BC2A226BB24842F001022263226B5B
:10A4900002F001020292029A4FF4C052CDE9032366
:10A4A0000A23CDE9056103A907934DF0A7FAD5F872
:10A4B000EC3A012B08D14FF4007303A9A448059688
:10A4C000CDE903364DF09AFA636B0621432043F041
:10A4D00080036363636B03F080030093009B636CF2
:10A4E00043F480436364636C03F480430193019BF2
:10A4F000FFF712FA974B0822D5F8C04A9A60A36872
:10A50000D5F8D06A23F00103A360D5F8D83A012B1F
:10A5100040F02A81A36BD5F8F42A23F48033012A72
:10A52000A363E36823F4840323F04003E360E36858
:10A5300023F44013E36003D1E36843F48013E36042
:10A5400020464CF0C3F9012E07D1A36843F006035F
:10A55000A360A36843F02003A360D5F8C03A32207B
:10A560000124DA6822F0C042DA60DA6842F0804200
:10A57000DA604EF077F8784B00211A46084682F8E8
:10A580003810D187013182F839400F2982F83B0019
:10A59000D064C2E9100002F11C02F0D10022D5F80B
:10A5A000C04A114683F8F82102F14000DA870132EF
:10A5B00004EB800083F8F9110F2A83F8FB11C3F82C
:10A5C0000C12C3E9801103F11C034160EAD1A36BB3
:10A5D000D5F8EC7A43F40013D5F8C4AAD5F8CC2A00
:10A5E000D5F8D08AD5F8D81AD5F8DC9AA3635FB924
:10A5F000A36B23F40013A363236843F04003236099
:10A60000236843F0800323600023012904F50066DA
:10A61000C4F8003ED4F80038C4F80038D4F8003844
:10A6200040F0AD80002A40F0B080C4F8003810211E
:10A6300020464CF0D1FA10232361484B013B02D055
:10A640002269D206FAD400224FF0FF334FF0904037
:10A650004FF0FF0C326111467261B36104F5106373
:10A66000F261924540F09480002104F530634FF090
:10A67000904C4FF0FF0E08468A4240F097803369B5
:10A68000B8F1010F23F48073336108D1344B336385
:10A69000336B43F4803343F003033363336B0023A2
:10A6A000A3616FF080436361B8F1000F03D1A36928
:10A6B00043F01003A361A2692A4B1343A361B9F1CC
:10A6C000000F03D0A36943F00803A361012F05D154
:10A6D000A36943F0804343F00403A361D5F8E42A5F
:10A6E0000123012A85F8793ED5F8C03A0ED1C5F884
:10A6F000B42E002285F8AC2E9A6942F000629A616D
:10A700005A6D42F0805242F003025A65D3F8042891
:10A71000032042F00202C3F804284DF0A3FFD5F84D
:10A72000C03A802200205A625A6A42F480029A6239
:10A730005A6A996A02EB114242F40002C3F80421FA
:10A7400008B0BDE8F08700BF58240120003802405F
:10A750000000024000E100E0182F0120410D03003D
:10A760000001800000383C80E368204643F040034D
:10A77000E3604CF0ABF84FF48033A363E3E60329C6
:10A780003FF450AF43F003034FE743F001034CE7BE
:10A79000D3F800E0BEF1000F06DA1860196101324B
:10A7A000C3F808C020335CE71960F7E7D3F800A0CE
:10A7B000BAF1000F07DAC3F800C018610131C3F81D
:10A7C00008E0203358E71860F7E70022013870B539
:10A7D00013460132845C002CFAD1DBB20C4A0133FF
:10A7E0005B000B8082F8C03E032382F8C13E022347
:10A7F00010F8015F05B970BD591CD618023352FA22
:10A8000081F186F8C05EDBB281F8C04EF0E700BF90
:10A8100058240120D0F82802120210B590F85D32B9
:10A8200000EBC3040133DBB284F83C12C4F84022CD
:10A83000042B08BF002380F85D3210BD70B50B4DAE
:10A8400001244FF406760020FFF7B2F955F8040B07
:10A8500020B10121C680047241F052FC0134042C65
:10A86000F4D10020BDE87040FFF7A2B934F6050826
:10A8700011B9114BD3F8EC1F0B6B834216D90E4B59
:10A88000D3F8EC3F994202D20021084670470A6B88
:10A89000904202D38A6B9042F7D94C39F2E70B6BA6
:10A8A000984202D38B6B9842EFD94C310B68002B46
:10A8B000F5D11946E9E700BF582401202DE9F84FEA
:10A8C000CE012BD10346204A02267E2543F8082BD1
:10A8D0004FF0FF32426018461C4F041D013D6FF0DF
:10A8E000704AD7F8F09F4FF0010B49460B6B06F109
:10A8F0000108B34202D88B6BB34213D23046FFF744
:10A90000B7FF014670B9494644F804BC46460434D2
:10A910006B1E2DB9C7F8F01FBDE8F88F8025DBE767
:10A920001D46E3E70B794A6B23B1964208D144F800
:10A9300004ACEBE79642FAD002D944F8043CE5E7D0
:10A9400044F8048CE2E700BFF8FFFF0F5824012011
:10A9500070B5114A0C4690F910301421054601FBE0
:10A9600003235E6A83689A0701D442F0B7F921682D
:10A970003046D4E901234BF0D7FDE1683046D4E9F5
:10A9800004234BF0D1FDAB689B0702D4284642F06C
:10A990009BF9012070BD00BF00000120544BB3FBA8
:10A9A000F2F3994210B504462DED028B0FD300232C
:10A9B0004FF07E52436002608360C36003610023F6
:10A9C000BDEC028BA36163612362E36110BD07EEFE
:10A9D000902AF0EE408A9FED470AB8EE677A07EEBC
:10A9E000901AF8EE677A27EE007A27EE270AFDEE36
:10A9F000C07A17EE903A2033402B75D8DFED3E7ABF
:10AA0000B4EEE70AF0EE407AF1EE10FA0CDDDFED7D
:10AA10003B5A9FED3B6AF0EE676A77EEE57AF4EE1B
:10AA2000C66AF1EE10FAF6DCDFED366AF4EEE67A8D
:10AA3000F1EE10FA0CD5DFED315A9FED336AF0EEEE
:10AA4000676A77EEA57AF4EEC66AF1EE10FAF6D4EC
:10AA5000DFED2E6AF4EEE67AF1EE10FA41DCDFED7E
:10AA60002C6AF4EEE67AF1EE10FA03D5DFED256AF2
:10AA700076EEE77A67EEA76A9FED266A9FED265A83
:10AA8000B6EE008ADFED255AA6EE865A9FED246ABF
:10AA900067EEA64AE6EE855AA6EEA56AE4EE867A49
:10AAA00027EE888A48F0E8FAC8EE287AF7EE006ABE
:10AAB000B8EE007A20EE070A37EEA66A76EEE77A5D
:10AAC00086EE867A20EE070A84ED007A67EE877AB2
:10AAD00084ED027A84ED010AC4ED047A84ED030A60
:10AAE0006DE7DFED056AC3E79FED0E8ADAE700BF89
:10AAF00020A1070027D4D236DB0F4940DB0FC94025
:10AB0000E4CB1641DB0F49C0E4CB16C1DB0FC93FD4
:10AB1000DB0FC9BF9A7C2E36FAAF4FB93587083C98
:10AB2000A4AA2ABE000000002DE9F04790B00D460F
:10AB30000746904600213C2201A899461A9EDDE96D
:10AB4000184A54F0B1FB344B8DF804500293CDF801
:10AB500034A0002D54D0022D54D0032D54D0042DF8
:10AB600054D103232D4A02EB430393F859308DF857
:10AB700005302B4B0394D3F8983506971C440123DA
:10AB8000CDE904468DF83130B8F1000F06D04A46C1
:10AB9000414607A854F044F98DF83090DFF884C09E
:10ABA00000231CF8BEEC0E93BEF1010F1DD81CF85B
:10ABB000BF6C3C240DF1040A0EF1010E04FB06C427
:10ABC000B6FA86F60CF8BEECBC3C7609BAE80F0083
:10ABD0000FC4BAE80F000FC4BAE80F000FC49AE818
:10ABE000070084E807000CF8BF6C3B6883B14B4654
:10ABF00042462946384610B0BDE8F04723F0FEBD76
:10AC00002B46AFE70123ADE70223ABE70023AEE716
:10AC100010B0BDE8F08700BF50340120E8F505080A
:10AC2000582401205035012070B51C4C94F8145361
:10AC300075B3D4F81C63012A0B68DFED196AA3EB26
:10AC40000603D4F8206318BFD4F8242307EE103A83
:10AC50004B68B8EEC77AA3EB060307EE903A8B6811
:10AC600027EE267AF8EEE77A18BF9B1A80ED007A75
:10AC700094EDC67A27EE267A67EE877AC0ED017AE0
:10AC800007EE903AF8EEE77AC0ED027A284670BDFA
:10AC90000023036043608360F8E700BF5035012064
:10ACA0002C7D8E3F70B51D4D04460E4695F814332D
:10ACB0002DED028B63B3D5F81C3395EDC68A036086
:10ACC000D5F820334360D5F824338360DFED148A50
:10ACD00096ED000A80EE280A51F01AF8236896EDE6
:10ACE000010A184428EE288A206080EE080A51F0F4
:10ACF0000FF8636896ED020A1844606051F008F896
:10AD0000A368BDEC028B1844A06095F8140370BDD5
:10AD1000B7EE008A8360C0E90033D7E750350120E1
:10AD20002C7D8E3F00230360704700BF174B00212E
:10AD3000174A184870B403F698141226002583F8B1
:10AD40005C19C3F88C4903F5166142F6F824C3F880
:10AD50008029114A83F86069C3F87C090120C3F88F
:10AD60009829C3F89C29C3F8A029C3F8A429C3F8DB
:10AD7000A829C3F8AC29C3F8B029C3F8B429C3F88B
:10AD8000B829C1E9024570BC704700BF50350120A9
:10AD9000CD8D0208C18D0208E003E003074B4FF49C
:10ADA0007871074AC3F87C29D3F88C399A1E22336C
:10ADB00022F8021F9A42FBD1704700BF5035012094
:10ADC000BDA30208F0B54FF47871244C1122244E33
:10ADD0004FF4787004F51C63C4F8001A4FF47871CE
:10ADE000204D002784F8602904F51662C4F87C69B8
:10ADF00041F60B2685B0C4F88059C3E90001C3E9C8
:10AE00000201C3E90401C3E90601C3E90801C3E97A
:10AE10000A01C3E90C01C3E90E014020C2E902673F
:10AE200025F0C8FBB8B194F80B2A0023032190F950
:10AE30000400012A0C4A01914FF040010CBF082583
:10AE40001D4600920295094A25F0EAFBC4F8240A3F
:10AE5000003818BF012005B0F0BD00BF50350120FB
:10AE6000E9970208D5980208A0680600599F0208D1
:10AE700070B502460A4B0B4CA34201D3002070BDB3
:10AE8000587990420AD1D879884207D118681E793A
:10AE90000579AE4202D10568AB42F0D00C33EBE746
:10AEA000E80100086C020008642828BF642000EB59
:10AEB000800070B5450064240026B5FBF4F4E4B2CC
:10AEC000F3B29C4212D80A2C0BD01420B5FBF0F040
:10AED000C4EB84156638C4EB85052844C0B242F043
:10AEE000CDF80134E4B2092C05D970BD9F2001369C
:10AEF00042F0C4F8E4E79A20F1E770B505460D4C3E
:10AF00000C2694F8283A062B01D9002011E05A1C8F
:10AF100006FB034384F8282AD3F82C2AD107F0D55E
:10AF20001542EED093F9300A25F066FB0028E8D0F0
:10AF3000406870BD5035012038B52DED088B70EE9E
:10AF400060AAD0ED019A0378B0EE408AB0EE41BA23
:10AF500004466AEEA99A0D46B0EE619AF0EE42BA46
:10AF6000B0EE62AA002B5DD101F00103D0ED0C7AA6
:10AF7000002B54D07AEEE77AF0EE6A0A87EE8B0A5D
:10AF8000D4ED0A7AC4ED0C0AF5EEC07AF1EE10FAAF
:10AF900062DCD4ED032A20EE220AD4ED057A60EEBD
:10AFA0000A2A94ED0B7A28EE278A78EE077A77EE54
:10AFB000A97A77EEA27AF4EEC97AF1EE10FA58D4B3
:10AFC00087FEEB0A15F0120FC4ED0E9A84ED0D7A90
:10AFD000C4ED0F2A84ED108A84ED110A1AD170EEA7
:10AFE000677A94ED046AD4ED026A6A0767EE867A9E
:10AFF000EAEEA67AF0EE476AEBEE276AF0EE667AA2
:10B0000018D5F0EEE66AB0EEC76AF4EEC66AF1EE65
:10B0100010FA31D42B0713D4BDEC088B38BD77EE72
:10B02000E07AABE711F001034FF0000240FEAA7A8C
:10B0300002709DE72B07B0EE667AC4ED0B6AEBD584
:10B04000B4EEC79AF1EE10FA01DC8BFEC79A84EDDC
:10B050000B9ABDEC088B38BDD4ED038AF0EE670A7D
:10B06000B0EE4B1A04F1180054F0B2FA28EE800A40
:10B0700093E7B0EE490AA5E7B0EE677AC4ED0B7A24
:10B08000C8E7254B102030B51C7819460133A4F1D0
:10B090003002092A27D900201F4A8B1A022B25DCEF
:10B0A000002391422CD82E2C34D1013104240022CB
:10B0B0000D7802EB8202013C303D5200092D92B224
:10B0C0009EBF5219013192B214F0FF04F0D16421F5
:10B0D0004A43124901FB03230622B3FBF2F3104A51
:10B0E00002FB003001E00138CED130BD00EB800022
:10B0F00012F8013B40003038184400F0FF00CCE764
:10B1000003EB830312F8015B5B00303B2B4403F03D
:10B11000FF03C6E70022DAE7D43F012040420F00D8
:10B120008096980080EAE073A3EBE0738B420ADB21
:10B1300000280ADD431A4FF4FA72501A02FB03F397
:10B1400093FBF0F0704700207047FDD000F5FA73D4
:10B150004FF4FA70411A00FB03F090FBF1F0A0F5F8
:10B16000FA7070479B1A00FB03F393FBF1F1881808
:10B17000704700BF094BD3F8940AD3F8982AD3F844
:10B180009C3A824202DB114602460846984204DDA0
:10B190009A42B8BF1A461046704770475035012092
:10B1A000124A02F52A6030B419C88342D2F8AC1AA8
:10B1B000D2F8B02AA2BF1D46034628468A42A2BF43
:10B1C00015460A4629468842A8BF08469342B8BF9A
:10B1D0001346A04202DC224604461046834203DAAC
:10B1E000A342B8BF2346184630BC704750350120F3
:10B1F0000B6810B414681B1B036054684B681B1B5E
:10B200005DF8044B43608B6892689B1A83607047BB
:10B210002DE9FF411546804608463C2446F036FCA1
:10B220004FF47A72002307460E464EF0F5F8B5F952
:10B2300000304FF47A72314603FB04043846002391
:10B2400000274EF0E9F84FF47A7396B201A8C3FBD9
:10B2500004673B46324646F0A1FB3A4B93F8B63AB8
:10B26000012B09D0022B35D032463B46404646F0F2
:10B2700095FB04B0BDE8F0819DF80640E31E072B66
:10B28000F2D8231F052B0DD92146BDF8040046F046
:10B2900033FB9DF8073098420ED0E11E18BF012104
:10B2A0000029E1D02B883C332B80274BF6184FF038
:10B2B000000343EB0707D7E7032C03D19DF80810E1
:10B2C0000039EBE70A2CCFD19DF80810B1FA81F1D3
:10B2D0004909E5E79DF80640E31E082BC4D8231F63
:10B2E000062BDFD92146BDF8040046F005FB032CF0
:10B2F00012D10E280ADC9DF80730984208D19DF83B
:10B300000810012994BF00210121C9E70738F0E79F
:10B31000B4BF01210021C3E70B2CA5D107280ADC0B
:10B320009DF80730984208D19DF8081001298CBF7C
:10B3300000210121B4E70738F0E7CCBF012100214B
:10B34000AEE700BF5035012080EE3600214AF0B54F
:10B35000134687B014460027012593F806E0C61B64
:10B3600006330135A0EB0E0CBCF1000FB8BFCCF1D9
:10B37000000C002EB8BF7642B445BCBF4FFA8EF722
:10B380001C46102DE9D100261378BB420CD16588EC
:10B3900053884D1BCB1A002DB8BF6D42002BB8BF90
:10B3A0005B429D42C8BF144601360632102EEBD1D7
:10B3B0006379094A0493237903936388029323787A
:10B3C000CDE9001303460321012047F041FF204649
:10B3D00007B0F0BD48F60508A989060830B504682D
:10B3E00085B0E4692CB10DF10F050095A04705B0BB
:10B3F00030BD2046FBE708B506483BF02FFE064867
:10B400003EF062FB054B93F8B82A12B1012283F893
:10B41000B92A08BDE2890608EE89060850350120E0
:10B420002DE9F04F064687B0174698460025DFF80D
:10B43000A0B00491002F07DBAF4205D00135042DE9
:10B44000F8D107B0BDE8F08FFA23002403FB05F91B
:10B45000049B03EB090A1D4B9944B8F1000F01DB73
:10B46000A0452ED139F814303AF81410C3F3441023
:10B47000CA1A5142514113F4006F03F01F0214BF66
:10B48000562348230591CDE90203CDE900422B461E
:10B490005A4630463CF0F6FD3AF81430059913F45C
:10B4A000006F03F01F02C3F3441014BF5623482358
:10B4B000CDE90042CDE902035A462B4630463CF026
:10B4C000F7FD01347D2CC8D1B8E700BF0A40012048
:10B4D000FB8906082DE9F0473E4C0F463E4B0026FF
:10B4E00094F828193D463D4A403CDFF8F8908AB070
:10B4F000002908BF1A46804694F9691938483CF07B
:10B500000DFA002F63D095F800A094F8C833D5F851
:10B510000CC05345D5E901E057D1D4F8CC3373457D
:10B5200053D1D4F8D03383424FD1D4F8D4336345C8
:10B530004BD12B691A46D4F8D833934245D1D4F86D
:10B54000DC136B6921F07F4123F07F43CB1A594212
:10B550005941AB7D4A4609910793B5F914300693DA
:10B56000B5F912300593B5F91030CDF800A0CDE94A
:10B5700003C3CDE901E0334640463CF083FD099921
:10B5800094F8DE334A464046183407931835B4F928
:10B59000C4330693B4F9C2330593B4F9C0330493AA
:10B5A000D4F8BC330393D4F8B8330293D4F8B4334B
:10B5B000019394F8B0330093334601363CF078FDA4
:10B5C0003C2E9ED10AB0BDE8F0870021C1E7394684
:10B5D000D6E700BF50350120158A06085BC2060871
:10B5E000188A0608278A06080C46054607B524F07F
:10B5F00064FF204624F061FF0020FEF7D9FA2846B8
:10B6000040F0BAFC98B10120FEF7D2FA284640F08B
:10B61000ADFC01462046019140F0ABFC01990028A9
:10B62000F8D0204640F0ABFC0020FEF7C1FA2046DF
:10B6300040F0A2FC0028E2D00120FEF7B9FA204633
:10B6400040F094FC01462846019140F092FC01999B
:10B650000028F8D0284640F092FCCDE7F0B50C4623
:10B66000054689B014220021204653F01DFE2A68A9
:10B6700004A80023C2F385511D4E054641FA03F785
:10B68000FF0748BF9F5D03F1010348BF00F8017B3E
:10B69000062BF3D100231749C2F305360370C2F31A
:10B6A00003200844CD3190F8C6008DF818000DF144
:10B6B000190046FA03F7FF0748BF5F5C03F1010377
:10B6C00048BF00F8017B062BF3D100230A49037021
:10B6D000C2F383432046029306ABCDE9005302F048
:10B6E0000F03C2F3031246F0A5FA09B0F0BD00BF84
:10B6F000A8F60508E8F50508458A0608404A10B48A
:10B7000092F86530516C023BD2E91240062B74D896
:10B71000DFE803F05A5C6050065504006442494279
:10B72000404280EAE0739FED376AA3EBE07307EED7
:10B73000103A84EAE473A3EBE473B8EEC77A06EE3A
:10B74000903A81EAE17327EE066AF8EEE66AA3EB27
:10B75000E17307EE903AB4EEE66AF8EEE77AF1EEBE
:10B7600010FA04DDB4EEE76AF1EE10FA34DC9FED76
:10B77000256A26EE866AB4EE467AF1EE10FA04D512
:10B78000B4EE676AF1EE10FA2DDC9FED1E6A67EEEB
:10B79000867AB4EE677AF1EE10FA2BD5F4EE676A8A
:10B7A000F1EE10FA26D50029CCBF042005205DF863
:10B7B000044B70474B42404221461C46B1E763426E
:10B7C00040420C461946ACE74942AAE74B42614267
:10B7D0001C46A6E76442A4E700285DF8044BCCBFF2
:10B7E000002001207047002C5DF8044BCCBF0220E4
:10B7F000032070474FF0FF30D9E72346E1E700BF51
:10B8000000000020ABAA2A3F37B5294C9FED297ACA
:10B8100094F8A22ED4F8C45E04EB4201013202F087
:10B820000F02B1F8A43EA1F8A40E84F8A22EC31A08
:10B8300094F80D2A2B4407EE902A94F80E2AC4F8A7
:10B84000C43E1B09F8EEE77AA4F8C83E67EE877A93
:10B85000FDEEE77A17EE901A07EE902AF8EEE77AF7
:10B8600067EE877AFDEEE77A17EE902A91420FDDB8
:10B870009BB29A42D4BF9B1A00239942AABFCB1A0B
:10B8800000239BB2A4F8C83E0B4617EE901A1A4646
:10B8900040F2FF350023B4F8C80E009547F0F0FAE7
:10B8A0002A46002147F008FBA4F8C80E03B030BDBB
:10B8B0005035012014AE2341F8B5854CA36913F42B
:10B8C00000352DED068B40F0AF8004F2CC51814E57
:10B8D00094ED498AD1ED007AD6F8807FD4ED4A8A7A
:10B8E00067EE883AD4ED4B4A94ED484A27EEA83AE1
:10B8F00067EEA42AD4ED536A24EEA37AD6F8842FF7
:10B9000067EE847A64EE235A937AA2EE887A24EE64
:10B91000276A5842E2EEA85A05EE100AA4EEA26A7F
:10B92000B8EEC55A36EE877AF2EE042AE8EE275AC8
:10B93000A3EE447AF0EE466A25EE225AE3EE686AF8
:10B94000B0EE656AA7EEE87AA3EE246AF0EE477AD5
:10B95000B0EE667AF4EEC57AA8EE637AF1EE10FAEC
:10B9600007D406EE903AB8EEE65A25EE225A85FE46
:10B97000675A84ED535AF2EE045AD37A97ED375A48
:10B980005842D4EDE36A07EE900AE5EE066AF8EE57
:10B99000E77A67EEA57AF4EEE76AF1EE10FA07D4DB
:10B9A00007EE903AF8EEE77A67EEA57AC7FEE67AF8
:10B9B000C4EDE37A137BD5B95A42F2EE046A07EE7E
:10B9C000902AF8EEE77A67EEA67AF4EEC77AF1EEFF
:10B9D00010FA07DC07EE903AF8EEE77A67EEA67AFF
:10B9E000C7FEC77AC1ED007ABDEC068BF8BD5A429E
:10B9F000D7ED365AD1ED006AB2EE046A07EE902A0E
:10BA0000E5EE876AF8EEE77A67EE867AB0EE667A58
:10BA1000F4EEE76AF1EE10FAE4D407EE903AF8EEAD
:10BA2000E77A67EE867ADBE7D4ED4A8A94ED498AB5
:10BA300068EEA87A9FED287AE8EE087AF4EEC77AE5
:10BA4000F1EE10FAD0D8236AB0EE409A214EB0EE53
:10BA5000E00A9B0649BF06F57163D6F8807FD6F8E9
:10BA6000807F93ED05AA58BF97ED35AA47F004FBF8
:10BA70009FED1A7AF0EE409ADFED197A89FE479A27
:10BA800089FE279AB1EE499AB0EE490A47F06CFB5D
:10BA9000F0EE407AB0EE490AB0EE679A47F0ECFA61
:10BAA0009FED106ADFED107AC9EE006A9FED0F7A04
:10BAB000DFED0F5A8AFE477A0E4987FE257A69EE36
:10BAC000A79A66EE866AC6EE877A67EEA97A07E7D6
:10BAD0000000002050350120CE8BD33E920A863FD5
:10BAE000920A86BF8F2A7544E12E65420080BB45CD
:10BAF00000009643CC0500202DE9F047084D95F84D
:10BB000089392DED048B82B0062B00F20F84DFE81B
:10BB100013F083056A05210409001F0476046705F4
:10BB2000000000207F4C042394ED8E7AD4ED907AAF
:10BB3000D4ED926A67EE072A27EEA73A94ED947A3D
:10BB4000D4ED967A66EEA63AD4ED8D1A27EE074A22
:10BB500094ED8F2A67EEA74AD4ED986AE1EEA12A08
:10BB600094ED9A7AA2EE023AD4ED9C7A26EEA65A89
:10BB700094ED911A67EE075AD4ED931A27EEA76A4F
:10BB800094ED952AE1EE013AD4ED9E6AA1EEA14A28
:10BB900094EDA07AE2EE024AD4EDA27A66EEA66AAD
:10BBA00094ED971A27EE077AD4ED991A67EEA77AE3
:10BBB00094ED9B2AA1EE015AE1EEA15A94ED9D1A53
:10BBC000A2EE026AD4ED9F1A94EDA12AE1EE016A79
:10BBD000A1EEA17AE2EE027AB1EEE22AF1EEC32AF8
:10BBE000B1EEE33AF1EEC43A84ED6D2AB1EEE44AE7
:10BBF000C4ED6E2AF1EEC54A84ED6F3AB1EEE55A16
:10BC0000C4ED703AF1EEC65A84ED714AB1EEE66ABF
:10BC1000C4ED724AF1EEC76A84ED735AB1EEE77A69
:10BC2000C4ED745A84ED756AC4ED766A84ED777A52
:10BC300094EDA47AD4EDA67A67EE075AD4EDA86AFB
:10BC400027EEA76A94EDAA7AD4EDAC7A66EEA66ADE
:10BC5000D4EDA34A27EE077A94EDA55A67EEA77AAA
:10BC6000E4EEA45A94EDA74AA5EE056AD4EDA94ADC
:10BC700094EDAB5AE4EE046AA4EEA47A85F889390F
:10BC8000E5EE057AB1EEE55AF1EEC65AB1EEE66A96
:10BC9000F1EEC76A84ED785AB1EEE77AC4ED795ACD
:10BCA00084ED7A6AC4ED7B6A84ED7C7A95F8222B68
:10BCB0000F2A00F37985002302F16D019FED1A7AB6
:10BCC00004EB81011E461846D1ED007A38B951EDDA
:10BCD000016AF4EEE67AF1EE10FA09DDD6B2B4EEBE
:10BCE000E77A0120F1EE10FA44BFB0EE677AD3B2E2
:10BCF00001320431102AE7D104EB8302591C0F2BC7
:10BD0000D2ED6D7A07EE101A06F1010267EEA76A0E
:10BD1000B8EEC77A66EEA77A27EE277A00F06D8133
:10BD200004E000BFF00700200000000005EB8301E5
:10BD30005E1C04EB830001F5FE61D0ED6E6A91EDAF
:10BD40006D6AF4EEC66AF1EE10FA40F1568166EEC5
:10BD5000065A05EE106A0F2EB8EEC55A25EE866A11
:10BD6000A5EE067A77EE867A00F02F850146981CBC
:10BD700091ED6F6AB4EEE66AF1EE10FA40F13D81A2
:10BD800066EEA65A05EE100A0F28B8EEC55A65EE03
:10BD9000A66AA5EE267A77EEA67A00F01885D1ED90
:10BDA000706AD81CF4EEC66AF1EE10FA40F12581F3
:10BDB00066EE065A05EE100A0F28B8EEC55A25EEB3
:10BDC000866AA5EE067A77EE867A00F0028591ED16
:10BDD000716A181DB4EEE66AF1EE10FA40F10D81B9
:10BDE00066EEA65A05EE100A0F28B8EEC55A65EEA3
:10BDF000A66AA5EE267A77EEA67A00F0EC84D1ED5D
:10BE0000726A581DF4EEC66AF1EE10FA40F1F58040
:10BE100066EE065A05EE100A0F28B8EEC55A25EE52
:10BE2000866AA5EE067A77EE867A00F0E68091EDD6
:10BE3000736A981DB4EEE66AF1EE10FA40F1DD8007
:10BE400066EEA65A05EE100A0F28B8EEC55A65EE42
:10BE5000A66AA5EE267A77EEA67A00F0CE80D1ED1E
:10BE6000746AD81DF4EEC66AF1EE10FA40F1C5808E
:10BE700066EE065A05EE100A0F28B8EEC55A25EEF2
:10BE8000866AA5EE067A77EE867A00F0B68091EDA6
:10BE9000756A03F10800B4EEE66AF1EE10FA40F1BB
:10BEA000AC8066EEA65A05EE100A0F28B8EEC55A09
:10BEB00065EEA66AA5EE267A77EEA67A00F09D805A
:10BEC000D1ED766A03F10900B4EEE66AF1EE10FAFC
:10BED00040F3938066EE065A05EE100A0F28B8EE7E
:10BEE000C55A25EE866AA6EE057A77EE867A00F0C8
:10BEF000848091ED776A03F10A00F4EEC66AF1EEF0
:10BF000010FA7ADD66EEA65A05EE100A0F28B8EE92
:10BF1000C55A65EEA66AA6EE857A77EEA67A6CD04B
:10BF2000D1ED786A03F10B00B4EEE66AF1EE10FA97
:10BF300063DD66EE065A05EE100A0F28B8EEC55A04
:10BF400025EE866AA6EE057A77EE867A55D091EDD3
:10BF5000796A03F10C00F4EEC66AF1EE10FA4CDDDA
:10BF600066EEA65A05EE100A0F28B8EEC55A65EE21
:10BF7000A66AA6EE857A77EEA67A3ED0D1ED7A6AE9
:10BF800003F10D00B4EEE66AF1EE10FA35DD66EE6F
:10BF9000065A05EE100A0F28B8EEC55A25EE866A35
:10BFA000A6EE057A77EE867A27D091ED7B6A03F1CB
:10BFB0000E00F4EEC66AF1EE10FA1EDD66EEA65A29
:10BFC00005EE100A0F28B8EEC55A65EEA66AA6EE71
:10BFD000857A77EEA67A10D0D4ED7C6AF4EEC66A44
:10BFE000F1EE10FA09D566EE066AF2EE0E5A26EE6A
:10BFF000866AA6EE257A77EE867A934240F34F81E1
:10C0000005EB8301581E04EB830601F5FE61D6EDB6
:10C010006C6A91ED6D6AF4EEC66AF1EE10FA40F1C9
:10C020003E81591C66EE065A904205EE101A25EE26
:10C03000866AB8EEC55A77EE867AA5EE067A40F3A0
:10C040002E8196ED6B6A991EB4EEE66AF1EE10FA57
:10C0500040F1258166EEA65A914265EEA66A05EE8C
:10C06000903AF8EEE55A77EEA67AA5EEA67A40F376
:10C0700016813746DE1ED7ED6A6AF4EEC66AF1EE27
:10C0800010FA40F10C8126EE065A05EE900A96420F
:10C09000F8EEE55A25EE066AA5EE867A77EE867A00
:10C0A00040F3FD8097ED696A181FB4EEE66AF1EE81
:10C0B00010FA40F1F48026EEA65A05EE901A90424E
:10C0C000F8EEE55A65EE266AA5EEA67A77EEA67A30
:10C0D00040F3E580D7ED686A591FF4EEC66AF1EEC9
:10C0E00010FA40F1DC8026EE065A05EE906A914285
:10C0F000F8EEE55A25EE066AA5EE867A77EE867AA0
:10C1000040F3CD8097ED676A9E1FB4EEE66AF1EECC
:10C1100010FA40F1C48026EEA65A05EE900A964227
:10C12000F8EEE55A65EE266AA5EEA67A77EEA67ACF
:10C1300040F3B580D7ED666AD81FF4EEC66AF1EE1B
:10C1400010FA40F1AC8026EE065A05EE901A9042A5
:10C15000F8EEE55A25EE066AA5EE867A77EE867A3F
:10C1600040F39D8097ED656AA3F10801B4EEE66A9D
:10C17000F1EE10FA40F1938026EEA65A05EE906A91
:10C180009142F8EEE55A65EE266AA5EEA67A77EEBC
:10C19000A67A40F38480D7ED646AA3F10906F4EE31
:10C1A000C66AF1EE10FA7AD526EE065A05EE900A26
:10C1B0009642F8EEE55A25EE066AA5EE867A77EE07
:10C1C000867A6CDD97ED636AA3F10A00B4EEE66A45
:10C1D000F1EE10FA63D526EEA65A05EE901A9042BB
:10C1E000F8EEE55A65EE266AA5EEA67A77EEA67A0F
:10C1F00055DDD7ED626AA3F10B01F4EEC66AF1EEEC
:10C2000010FA4CD526EE065A05EE906A9142F8EEE9
:10C21000E55A25EE066AA5EE867A77EE867A3EDD49
:10C220003E46A3F10C0796ED616AB4EEE66AF1EEC4
:10C2300010FA34D526EEA65A05EE900A9742F8EE8B
:10C24000E55A65EE266AA5EEA67A77EEA67A26DD91
:10C25000D6ED606A0D3BF4EEC66AF1EE10FA1ED51B
:10C2600026EE065A05EE901A9342F8EEE55A25EEB0
:10C27000066AA5EE867A77EE867A10DD94ED6E6A10
:10C28000B4EEE66AF1EE10FA09D526EEA66AF0EEF3
:10C29000085A66EE266AA6EEA57A77EEA67AF5EE3D
:10C2A000C07AF1EE10FA40F3748287EE278AD4ED5B
:10C2B000CD7A95F88AA9B7EE007A38EE478A28EE4B
:10C2C000278AB5F8280B4CF0FFFB064618EE100A3B
:10C2D0000F464CF01BFC80468946304639464246A4
:10C2E0004B464CF0F1FE08B946464F4639463046BB
:10C2F0004CF034FF00EE100A0AEBCA0304EB830093
:10C3000000F52D7053F068F995F88A29BCEEC00A43
:10C3100095F8893902F5C87205EB420210EE100A51
:10C32000B2F8F017A2F8F007A2F8F6175A1CB54BAE
:10C33000A3FB0213D11A03EB51039B08C3EBC30306
:10C34000D31A85F8893902B0BDEC048BBDE8F087BB
:10C35000AD4CABE4AD4CAC4EB0EE006AB5F88C1908
:10C36000F6EE006AD6ED6E7A3346D6ED6D5A013997
:10C3700077EEA77AD5F8A02904EBC100B0EE664AA3
:10C380001032B0EE677A0838D5EE867AA5EE867A56
:10C3900067EEA67A27EE267AC6ED8E7A86ED8D7A3E
:10C3A000D0ED036A0139D0ED027A02F10802D3ED33
:10C3B000705AA0F10800D3ED6F4A03F1080335EE7F
:10C3C000E67A12ED036A37EEE45A77EEA47A76EE57
:10C3D000A56A52ED045AA6EE057AE5EE857AA5EE39
:10C3E000E67AE6EE267A27EE047A67EE847A83ED23
:10C3F0008E7AC3ED8D7AD3D195F8893996E795F881
:10C400008A2902F5C87305EB4303B3F8F017B3F8B4
:10C41000F6378B421CBF012385F81D2B02F1010268
:10C420001CBFA5F81E1B85F81C3B0621784B85F820
:10C430008919A3FB020303F4FF7101EB5303D21A22
:10C4400085F88A2995F804386F4C9E1DC3F12003A6
:10C4500006EB421213F0FC0FC3F38501DFB204EBCD
:10C46000820600F0AD81013106F110022346080179
:10C4700006EB011112ED026A103293EDD17A1033FE
:10C4800052ED076A52ED057A26EE076AD3EDCC4AE3
:10C4900012ED087A8A4293EDCB5A66EEA46AD3ED88
:10C4A000CE5A27EE057A83ED6B6A67EEA57AC3ED67
:10C4B0006A6A83ED697AC3ED6C7ADBD1554BA0F1E2
:10C4C0001001A3F5C4720E440B44114417F003028B
:10C4D0001BD0D6ED007A013A93ED007A67EE877AA9
:10C4E000C1ED007A11D0D6ED017A012A93ED017ADF
:10C4F00067EE877AC1ED017A07D0D6ED027A93ED27
:10C50000027A67EE877AC1ED027A95F80468002E08
:10C510003FF472AFCF3795F88A39B00804EB870C37
:10C5200004EBC313ACF5C47C04EB870403F11807D8
:10C5300034D0013007F1100304F110010CF11002A6
:10C540004FEA001E07EB001013ED046A103351EDA3
:10C55000047A103253ED066A103126EE276A51ED47
:10C56000067A13ED077A51ED075A66EEA76A53ED86
:10C57000057A834202ED086A27EE257A11ED056AF5
:10C5800042ED066A67EE867A02ED077A42ED057A99
:10C59000DAD1AEF110031F441C449C4416F003038F
:10C5A0003FF42AAFD7ED007A013B94ED007A67EEB5
:10C5B000877ACCED007A3FF41FAF94ED017A012B1E
:10C5C000D7ED017A67EE877ACCED017A1FBFD7ED00
:10C5D000027A94ED027A67EE877ACCED027A0BE765
:10C5E00095F88A292EE7094CD5F894292046B5F804
:10C5F00098194CF063F895F88939013385F8893931
:10C60000A9E600BF25499224F0070020A4090020D4
:10C61000ABAAAAAA2C0B0020B5F88C396F4C59088C
:10C62000D5F8902904EB8308DB084FEA810004EB7E
:10C63000810E00F0A0805E1C10300EF1100302F19C
:10C64000100C0EEB061E404408F11006A4F5DA7734
:10C6500056ED047A103397ED6D1A0CF1100C50ED75
:10C66000041A103713ED086A71EE278A56ED032A73
:10C6700031EE671A10ED032A36EE218A56ED013AA3
:10C6800071EEC61A13ED064A103653ED054A103006
:10C6900056ED066A53ED075A50ED067A10ED057A0D
:10C6A00035EE820A97ED6B3A72EE655A97ED6A5A4B
:10C6B00074EE270A97ED6C6A77EEC47AC7ED698A43
:10C6C00035EE229A36EE232A35EE625A73EE268A2A
:10C6D00087ED6A9A74EE872A87ED6C2A37EE647AC2
:10C6E000C7ED6B8A73EE666A43ED052A36EE636A20
:10C6F00003ED088A03ED070A43ED060A73455CED76
:10C70000074A1CED084A24EEC12A24EE653A65EE7C
:10C71000242AA5EE042A61EE843AB0EE435AE1EEF3
:10C72000042AE5EEA43AA1EEA45A06ED072A46ED46
:10C73000082A40ED073A00ED085A5CED055A1CED59
:10C74000065A26EE253A65EEE63A27EE854A65EE6C
:10C75000474AE6EE053AA6EE853AA7EE254AE7EE09
:10C76000A54A06ED063A46ED053A00ED054A40EDCC
:10C77000064A7FF46DAF89B220460191FBF7A4FC15
:10C7800001994046D5F89029FBF79EFC95F8893928
:10C79000CCE595F88AA905EB4A03B3F8163B08EEF9
:10C7A000103AB8EE488A8CE5D4ED6D7A0122002368
:10C7B00027EEA77A67EE277AB0EE677AFFF7B6BA68
:10C7C00004F5DA7104F54F7380E60E2315E40D23AA
:10C7D00013E40C2311E40B230FE400BFA409002091
:10C7E0002DE9F04F2DED028B87B0354D0446B0EEAC
:10C7F000408A03901046D5F8889F0E4617469B4600
:10C800004CF018F80146D9F800C04FF00008214458
:10C8100089F80B6048463B4689F80A1032462146A3
:10C82000CDF80080DCF814409DF848A09DF84C90AD
:10C83000A0479FED240A5346424604A828EE000A6A
:10C84000CDF804B0CDF80080FDEEC07A17EE901A56
:10C850000EF050FFD5F88C3F13B11B784B452BD011
:10C86000D5F8983F13B11B784B4525D0D5F8A43F98
:10C8700013B11B784B451FD0D5F8B03FD3B11B780F
:10C88000A3EB0909B9FA89F94FEA591938464BF06F
:10C89000D1FF039C04AB32460134CDF8009021183F
:10C8A000D5F8880FC9B240F03BF907B0BDEC028B58
:10C8B000BDE8F08F9946E9E74FF00109E6E700BFD0
:10C8C000503501200000C84230B51C7814B1012C4D
:10C8D00005D030BD9A780270DB780B70F9E7B3F9B8
:10C8E000024052B1157B94FBF5F40470B3F90430A7
:10C8F0002AB1527B93FBF2F3EFE70C25F3E7122208
:10C90000F8E730B51C7814B1012C0FD030BD9D78FC
:10C9100042B1147B6C430460D8782AB1537B434303
:10C920000B60F3E70C24F5E71223F8E7B3F90220D4
:10C93000B3F904300260F3E737B50C4605460192BF
:10C940000CF052FC019B2246294640F09DF9094A11
:10C95000012092F9BC3F02EB430101335BB281F845
:10C96000BD5F81F8BE4F352BC8BF002382F8BC3FA6
:10C9700003B030BD50350120074910B411F8CC2C5C
:10C980000024C339052A0460047128BF05225DF81C
:10C99000044B52F045BA00BF48460120074910B485
:10C9A00011F8CC2C0024C339032A0480847028BFDA
:10C9B00003225DF8044B52F033BA00BF4846012011
:10C9C00073B506460D4624F02FF9044668B12A884F
:10C9D0007420AB78ADF8052004228DF804600DEBCF
:10C9E00002018DF8073023F0C5FE204602B070BD6D
:10C9F000F8B5204C1D270E46054684F8547022F0E9
:10CA000015FA002022F098F9082022F095F90E205E
:10CA100022F092F9384622F08FF9042022F08CF9A6
:10CA2000042022F089F9002022F086F9302022F03B
:10CA300083F9002022F080F9304622F07DF90020B1
:10CA400022F07AF922F0D0F904F1550022F0DAF858
:10CA5000234670B194F8552052B994F85620302AE4
:10CA600000D02AB993F8572012B993F858302B7098
:10CA70000120F8BD48460120024610B5041D0020E3
:10CA8000A24200D110BD12F8013B0821584010F01D
:10CA9000800F4FEA400318BF83F031030139D8B249
:10CAA000F5D1EDE70F4B062230B483F8672024223E
:10CAB00003F16B0183F8682083F86920002283F872
:10CAC0006A20094A02F1240452F8045BA24241F8A8
:10CAD000045BF9D1032283F86D0030BC83F86E202B
:10CAE00017F0C2B948460120BBF60508F0B501466B
:10CAF000134C00204FF00A0C264602460746A318A6
:10CB000093F8843A03B9F0BD2E2B06D101320029E7
:10CB1000F9D0A3180B4483F8847AB3180CFB00F007
:10CB200093F8845AA5F13003092B9CBFA0F1300380
:10CB3000E8180E2A01D80132E1E70020E3E700BF40
:10CB400050350120F8B5164C0546D4F8A8000379F5
:10CB50001E3B012B02D900213FF011FA114F002694
:10CB6000AE4215DB94F8FF3023B10021D4F8A800C1
:10CB70003FF005FA0C4BD3F89835C4F80031002388
:10CB8000C4F80431B4F808310133A4F80831F8BD11
:10CB900017F8011B0136D4F8A8003FF0F0F9DFE7E1
:10CBA00048460120F446012058240120036813F070
:10CBB000400004D013F4057F14BF0120002070470B
:10CBC0002DE9F043264D85B0264C804605F1280915
:10CBD0000F461646C4F88C59C4F89099FEF7DEF853
:10CBE000214804F516614FF0120C42F6F82200239A
:10CBF000C4F88009402084F860C9C1E9022323F009
:10CC0000D9FC044630B3FFF7D1FF98F800C0B0F16B
:10CC100000083F7894F904004B4614BF0322012218
:10CC2000BCF1000F009601924FF040010CBF0724A9
:10CC30000624012F0D4AA5F58C750CBF0826002689
:10CC40003443029423F0ECFCB8F1000F05D1003816
:10CC500018BF012005B0BDE8F083C5F88001F6E7F4
:10CC60006047012050350120CD8A0208719D0208DD
:10CC70000348044A00F60B2100F60A20A0E700BF93
:10CC800050350120400D03000348044A00F60B21F3
:10CC900000F60A2094E700BF50350120A08601006D
:10CCA000F0B5BF4C85B0D4F8846194F888716EB14A
:10CCB0003046FFF77BFF48B14FBBD4F8803133B328
:10CCC000B84AD367012384F8883120E094F88901B9
:10CCD000FBF798FEB842054619D0002800F0FC800A
:10CCE000AEB1B04D042196F90400022695F8293022
:10CCF000B3FA83F35B0902934FF41653CDE9003680
:10CD000000231A4623F08CFCE8670028DAD194F857
:10CD10008A01FBF777FE94F88B31054683421ED0DB
:10CD2000002800F0E180D4F88C21C2B19D4B032192
:10CD300092F9040093F83030002B18BF08230293B7
:10CD40004FF49643CDE90031002308211A4623F021
:10CD500067FCC4F8900110B1012384F88B31FBF714
:10CD6000A9FFD4F8946194F89871002E00F0C58062
:10CD70003046FFF71BFF002800F0BF8057B9D4F8FA
:10CD800080313BB1874AC2F88430FBF79FFC012316
:10CD900084F8983194F89B01FBF734FE94F89C31A9
:10CDA000054683423AD0002800F0E880D4F8A0314C
:10CDB000D3B11A7A032193F904000023002ACDE9A4
:10CDC000011308BF0722784901EB82024FF48071FA
:10CDD000D2F8F82000921A4623F022FCC4F8A401ED
:10CDE00010B1012384F89C316E4A704B92F85810B0
:10CDF00083F8761092F8591083F8771092F85A1049
:10CE000083F87A1092F85B1083F87E1092F85C1029
:10CE100092F85D2083F87F1083F8802094F8A801B1
:10CE2000FBF7F0FD94F8A931054683422AD000288B
:10CE300000F0AD804FF4FA710E201FF077FCD4F8AB
:10CE4000AC31FBB11A6802F41072B2F5107F19D040
:10CE500093F90400082203234FF40071CDE9013255
:10CE60004FF4E133009300231A4623F0D9FBC4F8B2
:10CE7000B00138B14B4B9867012384F8A9310023E6
:10CE800084F8B43194F8B55125BBD4F8B8310BB35C
:10CE9000032293F9040002954FF4002101921A7ABB
:10CEA000414B03EB82032A46D3F8F83000932B461C
:10CEB00023F0B6FBC4F8BC0160B13A4B84F8C8510A
:10CEC000D3F8983503F51C531033C4E970350123AA
:10CED00084F8B53105B0F0BD324EF06F23F0F8FAAA
:10CEE000F56784F8885112E7D4F8900123F0F0FA3E
:10CEF000C4F8905184F88B5131E794F89901FBF70D
:10CF000081FD874205463FF445AF68B3FBF7DEFB82
:10CF1000002E3FF43FAF317A224F19B302291DD1C1
:10CF200097F833300BB9214B3B660025022396F965
:10CF300004002A46CDE901351B4B03EB8101D1F8F2
:10CF4000F830102100932B4623F06AFBC7F88400C9
:10CF500000283FF41FAF84F89A5118E70129E4D163
:10CF6000134BE1E70521E0E70E4ED6F8840023F0ED
:10CF7000AFFAC6F8845084F898510BE7D4F8A401AE
:10CF800023F0A6FAC4F8A45184F89C5146E7D4F8DB
:10CF9000B00123F09DFAC4F8B05184F8A95171E7AB
:10CFA0004846012058240120E8F50508000001202A
:10CFB0000A00012013B50223074C0190C4F8CC31BC
:10CFC0004BF038FC0199C2B2D4F8BC0102B0BDE804
:10CFD00010403EF0D7BF00BF48460120084BD3F8B1
:10CFE000C42183F8D001052A09D00422C3F8C42142
:10CFF000D3F8CC21022A1CBF0022C3F8C0217047FD
:10D0000048460120094A10B592F836306BB902F152
:10D010003604C15C222904D0013304F8011B0F2B14
:10D02000F7D11344002283F8362010BD5824012084
:10D0300038B5214D044605F136004BF0FBFB95F861
:10D04000363002462B2B09D105381C4900230A46ED
:10D05000013115789DB9B3B9002024E0302B0BD1F4
:10D0600095F83730A3F13101012903D9362B01D0CE
:10D070000138EAE7901EE8E7382BE6D1F8E70133FC
:10D080000A46102BE3D1234604F11005194601335B
:10D090000C78222C02D0AB421946F7D10B46CC1AA1
:10D0A000A04201DC012038BD13F8015D12F8014DEA
:10D0B000A542F4D0D0E700BF582401208E240120DF
:10D0C0002DE9F0430F4616462DED028B83B020B1BB
:10D0D0000378303B012B40F26381DFF82493DFEDCE
:10D0E000C18A9FEDC18A3B78002B3ED036B1BF4B41
:10D0F0003268D3F898359A4240F2EB82BC4C94F8EF
:10D10000D151002D40F0758294F8D201B94B03EB58
:10D110004003B3F83C316BBB012384F8D231B64BEA
:10D12000DA6911061FD59A69920740F1A382AF4AC6
:10D130004FF4F3601021B2F8CC338DF80010302199
:10D1400013FB00F312688DF80110082189FB0340DE
:10D15000DB1700248DF80210C3EB60136846CDF88E
:10D16000033090473C70002EBDD103B0BDEC028B64
:10D17000BDE8F0830130B3F58A6FC0B284F8D20104
:10D1800000F0668125D8B3F5806F00F0FA8170D980
:10D19000B3F5866F00F0DC814AD9B3F5886FE2D130
:10D1A000DFF8488298F82D30002BDCD0924A10240A
:10D1B000D8F800304021B2F9AC0B04228DF80040C1
:10D1C000CDF80300002468468DF801108DF8022088
:10D1D0002BE0B3F5006F00F015817ED9B3F5046F35
:10D1E00000F0E68061D9B3F5116F00F0E981B3F585
:10D1F000206FB8D1804B1B6A9A06B4D57F491023A3
:10D200000A220024D1ED057A68468DF8003067EED9
:10D21000A87A764B8DF802201B68FCEEE77A8DF831
:10D22000014017EE902ACDF8032098473C709AE70A
:10D23000B3F5826F00F0B581B3F5846F93D16E4B77
:10D24000DA6912068FD59A69950740F11B82D4F8E6
:10D25000F401102120220423CDF8030000246846A5
:10D260008DF800108DF801208DF802305F4B1B689F
:10D27000DBE7B3F5007F00F0488150D9B3F5047FB8
:10D280007FF471AF5C4BDB699D077FF56CAFDFF816
:10D290005C8198F82E30002B00F0FC8194F8D3418B
:10D2A000002C40F019822046FCE1B3F5026F4FD10B
:10D2B000514BDA6911067FF556AF9A69920740F132
:10D2C00000824A4B102020210822D3F8BC431B685F
:10D2D000CDF803408DF8000074E7B3F5E26F00F07D
:10D2E000FA803DD9B3F5E46F7FF43DAFDFF8FC8001
:10D2F00098F82D30002B7FF436AF3F4B002493ED90
:10D300001D0A20EE080A4EF003FD1022D8F8003066
:10D3100020218DF800200722CDF8030053E7B3F554
:10D32000807F00F0BD80B3F5887F7FF41CAF324B67
:10D330001B6A5B077FF517AF07F044FC90ED050A09
:10D340004EF0E6FC002410230122CDF8030048E152
:10D35000B3F5036F3FF4E3AE002E7FF4C4AE04E7F1
:10D36000B3F5C06F00F08480B3F5E06F7FF4FBAEDF
:10D370001E4D95F82D40002C7FF4F5AE1E4B93ED1D
:10D380001B0A20EE080A4EF0C3FC1021CDF8030062
:10D3900007222B6868468DF801408DF800107CE06C
:10D3A00001300621FBF7D4FD114B83F8D10194E63F
:10D3B000114B102140226846B3F9B03B8DF80010A4
:10D3C000082103EB83038DF80120084A5B008DF8E8
:10D3D00002101268CDF8033090473D70002E7FF4A4
:10D3E00082AEC2E6B80C473E0000C8425824012075
:10D3F00048460120E8F505080000002060440120AF
:10D400001F85EB51B84BDA6915067FF5ACAE9A690A
:10D41000940740F10E81C30740F11581DFF8CC82FB
:10D42000D8F8B82382EAE273002AA3EBE27303EB95
:10D430005303A9FB03134FEAD303ACBF43F00043EC
:10D4400043F04043102100240822CDF803301DE0B2
:10D45000A54BDA6915067FF586AE9A69940740F107
:10D46000ED80A24B102050210422B3F9CE432EE7C9
:10D47000DFF8788298F83130002B40F0C7801EF03A
:10D48000F9FC00241021CDF803000622D8F8003062
:10D4900068468DF800108DF801408DF80220C4E632
:10D4A000914B1B6A59077FF55EAE07F08BFBD0ED01
:10D4B000027A10220123FCEEE77A00248DF8002086
:10D4C00068468DF8023017EE902A884B8DF801409F
:10D4D000CDF80320CBE6854D95F82D40002C7FF448
:10D4E00042AE814B93ED1C0A20EE080A4EF010FC70
:10D4F00010230721CDF803002A6868468DF8003014
:10D500008DF801308DF802102BE6774BDB6918059A
:10D510007FF529AE94F8DC31002B3FF424AE73493B
:10D520001020734AB1F986358DF80000684682FBF9
:10D530000342DB170968C3EBA20302228DF80150F6
:10D540001BB28DF80220CDF8033088473D7045E7C7
:10D55000664B93F82D20002A3FF405AE624A102452
:10D5600030211B68B2F9AE0B04228DF80040CDF8D3
:10D57000030068468DF801108DF8022098473D7031
:10D580002CE7FBF769F910230422CDF803008DF88E
:10D5900000306846554B8DF801501B688DF802200D
:10D5A000ECE7514BDA6915067FF5DDAD9A69940712
:10D5B0005CD5FBF7FBFB10230422CDF803000FE042
:10D5C000494BDB6999077FF5CEAD94F8D3411CB187
:10D5D0001EF042FCB0FBF4F410230922CDF8034006
:10D5E000002468468DF800308DF801308DF8022057
:10D5F0003CE640490620FBF713FC002384F8D101E8
:10D600003B7003B0BDEC028BBDE8F083364AD269B3
:10D6100012057FF5A8AD94F8DC21002A3FF4A3ADF4
:10D62000012B5ED0D4F8F03110210024CDF8033066
:10D630002BE71B6819077FF5EEAE94E51B6818070A
:10D640007FF50FAF8FE5DFF8A480D8F8B42382EA26
:10D65000E273002AA3EBE27303EB5303A9FB03136A
:10D660004FEAD303B8BF43F08043EBE61B681807CB
:10D670009FD578E51B681B077FF559AD002E7FF419
:10D6800032AD72E51B6818077FF5E1AD002E7FF41F
:10D690002AAD6AE594F8DE31012B0CBFB4F8EC0139
:10D6A000B4F8EE0110230221CDF803000024D8F8CD
:10D6B000002068468DF800308DF801308DF802109A
:10D6C0004FE51B681B077FF5FCAD002E7FF40BAD0B
:10D6D0004BE500233B7094E71EF0BEFBB0FBF4F07B
:10D6E000E0E7D8F888359FE70000002058240120A3
:10D6F00067666666D18500082DE9F041454F82B026
:10D7000097F84B33012B02D002B0BDE8F081786866
:10D710000028F9D0D7F8983500223F4C013316463F
:10D7200004F5FC783D4D8DF8032001930AE01B2B96
:10D7300084F800224AD00D2B36D00123002685F82C
:10D740008130786803685B689847002E49D10028CB
:10D7500047D078680368DB68984783B27E2B49D04E
:10D7600095F8812012BB94F80062002EDFD17D2B4A
:10D770004CD094F804222AB180F0200384F804628B
:10D78000D8B2034694F8FF21B4F80212062A0FD843
:10D7900002F1010C0B442244002684F8FFC182F8F8
:10D7A000F801A4F80232CCE7A4F802220026C8E768
:10D7B00001220B4485F88120C3F3072252FA83F338
:10D7C000FF2BA4F80232F1D14646BAE77868036825
:10D7D0005B6898470028B0D1012306468DF80330D6
:10D7E000ADE7304601AA0DF10301FFF769FC02B075
:10D7F000BDE8F081002301221E468DF8033084F835
:10D80000FF3185F8813084F800229AE7012384F8FB
:10D81000043296E7582401204846012000000120E8
:10D82000054B93F84B230AB1002070470222186081
:10D83000012083F84B23704758240120F0B5224C77
:10D8400085B0224D42F6F8260027C4F88C59FDF722
:10D85000A5FA12201E491F4A04F5166384F86009D0
:10D860004020C4F88019C4F88429C3E9026722F073
